{
    "contractName": "Swisstronik",
    "abi": [
        {
            "inputs": [
                {
                    "internalType": "string",
                    "name": "_message",
                    "type": "string"
                }
            ],
            "stateMutability": "payable",
            "type": "constructor"
        },
        {
            "inputs": [],
            "name": "getMessage",
            "outputs": [
                {
                    "internalType": "string",
                    "name": "",
                    "type": "string"
                }
            ],
            "stateMutability": "view",
            "type": "function"
        },
        {
            "inputs": [
                {
                    "internalType": "string",
                    "name": "_message",
                    "type": "string"
                }
            ],
            "name": "setMessage",
            "outputs": [],
            "stateMutability": "nonpayable",
            "type": "function"
        }
    ],
    "bytecode": "60806040526040516105bd3803806105bd83398101604081905261002291610048565b5f61002d828261017c565b5050610236565b634e487b7160e01b5f52604160045260245ffd5b5f60208284031215610058575f80fd5b81516001600160401b0381111561006d575f80fd5b8201601f8101841361007d575f80fd5b80516001600160401b0381111561009657610096610034565b604051601f8201601f19908116603f011681016001600160401b03811182821017156100c4576100c4610034565b6040528181528282016020018610156100db575f80fd5b8160208401602083015e5f91810160200191909152949350505050565b600181811c9082168061010c57607f821691505b60208210810361012a57634e487b7160e01b5f52602260045260245ffd5b50919050565b601f82111561017757805f5260205f20601f840160051c810160208510156101555750805b601f840160051c820191505b81811015610174575f8155600101610161565b50505b505050565b81516001600160401b0381111561019557610195610034565b6101a9816101a384546100f8565b84610130565b6020601f8211600181146101db575f83156101c45750848201515b5f19600385901b1c1916600184901b178455610174565b5f84815260208120601f198516915b8281101561020a57878501518255602094850194600190920191016101ea565b508482101561022757868401515f19600387901b60f8161c191681555b50505050600190811b01905550565b61037a806102435f395ff3fe608060405234801561000f575f80fd5b5060043610610034575f3560e01c8063368b877214610038578063ce6d41de1461004d575b5f80fd5b61004b61004636600461011d565b61006b565b005b61005561007a565b60405161006291906101d0565b60405180910390f35b5f6100768282610289565b5050565b60605f805461008890610205565b80601f01602080910402602001604051908101604052809291908181526020018280546100b490610205565b80156100ff5780601f106100d6576101008083540402835291602001916100ff565b820191905f5260205f20905b8154815290600101906020018083116100e257829003601f168201915b5050505050905090565b634e487b7160e01b5f52604160045260245ffd5b5f6020828403121561012d575f80fd5b813567ffffffffffffffff811115610143575f80fd5b8201601f81018413610153575f80fd5b803567ffffffffffffffff81111561016d5761016d610109565b604051601f8201601f19908116603f0116810167ffffffffffffffff8111828210171561019c5761019c610109565b6040528181528282016020018610156101b3575f80fd5b816020840160208301375f91810160200191909152949350505050565b602081525f82518060208401528060208501604085015e5f604082850101526040601f19601f83011684010191505092915050565b600181811c9082168061021957607f821691505b60208210810361023757634e487b7160e01b5f52602260045260245ffd5b50919050565b601f82111561028457805f5260205f20601f840160051c810160208510156102625750805b601f840160051c820191505b81811015610281575f815560010161026e565b50505b505050565b815167ffffffffffffffff8111156102a3576102a3610109565b6102b7816102b18454610205565b8461023d565b6020601f8211600181146102e9575f83156102d25750848201515b5f19600385901b1c1916600184901b178455610281565b5f84815260208120601f198516915b8281101561031857878501518255602094850194600190920191016102f8565b508482101561033557868401515f19600387901b60f8161c191681555b50505050600190811b0190555056fea2646970667358221220b2292ba9e05d62f3880337009fc6242822425c78bc3c9b6fc76697e6acaffd4e64736f6c634300081a0033",
    "sourcePath": "d:/users/dev/swisstronik-tutorials/Contract_deployment _hardhat/contracts/Hello_swtr.sol",
    "compiler": {
        "name": "solc",
        "version": "0.8.26+commit.8a97fa7a"
    },
    "functionHashes": {
        "getMessage()": "ce6d41de",
        "setMessage(string)": "368b8772"
    },
    "gasEstimates": {
        "creation": {
            "codeDepositCost": "178000",
            "executionCost": "infinite",
            "totalCost": "infinite"
        },
        "external": {
            "getMessage()": "infinite",
            "setMessage(string)": "infinite"
        }
    }
}